{
  "contractName": "FlightTicket",
  "abi": [
    {
      "constant": true,
      "inputs": [],
      "name": "_arrival",
      "outputs": [
        {
          "name": "",
          "type": "string"
        }
      ],
      "payable": false,
      "stateMutability": "view",
      "type": "function"
    },
    {
      "constant": true,
      "inputs": [],
      "name": "_price",
      "outputs": [
        {
          "name": "",
          "type": "uint256"
        }
      ],
      "payable": false,
      "stateMutability": "view",
      "type": "function"
    },
    {
      "constant": true,
      "inputs": [],
      "name": "_totalRefund",
      "outputs": [
        {
          "name": "",
          "type": "uint256"
        }
      ],
      "payable": false,
      "stateMutability": "view",
      "type": "function"
    },
    {
      "constant": true,
      "inputs": [],
      "name": "_percentRefund",
      "outputs": [
        {
          "name": "",
          "type": "uint256"
        }
      ],
      "payable": false,
      "stateMutability": "view",
      "type": "function"
    },
    {
      "constant": true,
      "inputs": [],
      "name": "_to",
      "outputs": [
        {
          "name": "",
          "type": "string"
        }
      ],
      "payable": false,
      "stateMutability": "view",
      "type": "function"
    },
    {
      "constant": true,
      "inputs": [],
      "name": "_flightNumber",
      "outputs": [
        {
          "name": "",
          "type": "string"
        }
      ],
      "payable": false,
      "stateMutability": "view",
      "type": "function"
    },
    {
      "constant": true,
      "inputs": [],
      "name": "_departure",
      "outputs": [
        {
          "name": "",
          "type": "string"
        }
      ],
      "payable": false,
      "stateMutability": "view",
      "type": "function"
    },
    {
      "constant": true,
      "inputs": [],
      "name": "_date",
      "outputs": [
        {
          "name": "",
          "type": "string"
        }
      ],
      "payable": false,
      "stateMutability": "view",
      "type": "function"
    },
    {
      "constant": true,
      "inputs": [],
      "name": "_delay",
      "outputs": [
        {
          "name": "",
          "type": "uint256"
        }
      ],
      "payable": false,
      "stateMutability": "view",
      "type": "function"
    },
    {
      "constant": true,
      "inputs": [],
      "name": "_from",
      "outputs": [
        {
          "name": "",
          "type": "string"
        }
      ],
      "payable": false,
      "stateMutability": "view",
      "type": "function"
    },
    {
      "inputs": [
        {
          "name": "flightNumber",
          "type": "string"
        },
        {
          "name": "departure",
          "type": "string"
        },
        {
          "name": "arrival",
          "type": "string"
        },
        {
          "name": "from_",
          "type": "string"
        },
        {
          "name": "to",
          "type": "string"
        },
        {
          "name": "date",
          "type": "string"
        },
        {
          "name": "price",
          "type": "uint256"
        }
      ],
      "payable": false,
      "stateMutability": "nonpayable",
      "type": "constructor"
    },
    {
      "constant": false,
      "inputs": [
        {
          "name": "delay",
          "type": "uint256"
        }
      ],
      "name": "validateFlight",
      "outputs": [],
      "payable": false,
      "stateMutability": "nonpayable",
      "type": "function"
    },
    {
      "constant": false,
      "inputs": [],
      "name": "getPercentRefund",
      "outputs": [
        {
          "name": "",
          "type": "uint256"
        }
      ],
      "payable": false,
      "stateMutability": "nonpayable",
      "type": "function"
    },
    {
      "constant": false,
      "inputs": [],
      "name": "getTotalRefund",
      "outputs": [
        {
          "name": "",
          "type": "uint256"
        }
      ],
      "payable": false,
      "stateMutability": "nonpayable",
      "type": "function"
    }
  ],
  "bytecode": "0x60806040523480156200001157600080fd5b5060405162000d7838038062000d7883398101806040528101908080518201929190602001805182019291906020018051820192919060200180518201929190602001805182019291906020018051820192919060200180519060200190929190505050336000806101000a81548173ffffffffffffffffffffffffffffffffffffffff021916908373ffffffffffffffffffffffffffffffffffffffff16021790555033600160006101000a81548173ffffffffffffffffffffffffffffffffffffffff021916908373ffffffffffffffffffffffffffffffffffffffff16021790555086600290805190602001906200010e92919062000207565b5085600390805190602001906200012792919062000207565b5084600490805190602001906200014092919062000207565b5083600590805190602001906200015992919062000207565b5082600690805190602001906200017292919062000207565b5081600790805190602001906200018b92919062000207565b508060088190555060006009600080815260200190815260200160002081905550600f60096000605a815260200190815260200160002081905550601e60096000607881526020019081526020016000208190555060646009600060b481526020019081526020016000208190555050505050505050620002b6565b828054600181600116156101000203166002900490600052602060002090601f016020900481019282601f106200024a57805160ff19168380011785556200027b565b828001600101855582156200027b579182015b828111156200027a5782518255916020019190600101906200025d565b5b5090506200028a91906200028e565b5090565b620002b391905b80821115620002af57600081600090555060010162000295565b5090565b90565b610ab280620002c66000396000f3006080604052600436106100c5576000357c0100000000000000000000000000000000000000000000000000000000900463ffffffff1680631263d4f5146100ca578063235b6ea11461015a5780633fba1635146101855780634dad6069146101b0578063559659fa146101db578063689d14b9146102065780638c2b61b6146102965780638f5975281461032657806393af175414610353578063afd4b0f6146103e3578063b1139cba14610473578063e83637431461049e578063f2d71785146104c9575b600080fd5b3480156100d657600080fd5b506100df610559565b6040518080602001828103825283818151815260200191508051906020019080838360005b8381101561011f578082015181840152602081019050610104565b50505050905090810190601f16801561014c5780820380516001836020036101000a031916815260200191505b509250505060405180910390f35b34801561016657600080fd5b5061016f6105f7565b6040518082815260200191505060405180910390f35b34801561019157600080fd5b5061019a6105fd565b6040518082815260200191505060405180910390f35b3480156101bc57600080fd5b506101c5610603565b6040518082815260200191505060405180910390f35b3480156101e757600080fd5b506101f0610609565b6040518082815260200191505060405180910390f35b34801561021257600080fd5b5061021b610613565b6040518080602001828103825283818151815260200191508051906020019080838360005b8381101561025b578082015181840152602081019050610240565b50505050905090810190601f1680156102885780820380516001836020036101000a031916815260200191505b509250505060405180910390f35b3480156102a257600080fd5b506102ab6106b1565b6040518080602001828103825283818151815260200191508051906020019080838360005b838110156102eb5780820151818401526020810190506102d0565b50505050905090810190601f1680156103185780820380516001836020036101000a031916815260200191505b509250505060405180910390f35b34801561033257600080fd5b506103516004803603810190808035906020019092919050505061074f565b005b34801561035f57600080fd5b5061036861089c565b6040518080602001828103825283818151815260200191508051906020019080838360005b838110156103a857808201518184015260208101905061038d565b50505050905090810190601f1680156103d55780820380516001836020036101000a031916815260200191505b509250505060405180910390f35b3480156103ef57600080fd5b506103f861093a565b6040518080602001828103825283818151815260200191508051906020019080838360005b8381101561043857808201518184015260208101905061041d565b50505050905090810190601f1680156104655780820380516001836020036101000a031916815260200191505b509250505060405180910390f35b34801561047f57600080fd5b506104886109d8565b6040518082815260200191505060405180910390f35b3480156104aa57600080fd5b506104b36109e2565b6040518082815260200191505060405180910390f35b3480156104d557600080fd5b506104de6109e8565b6040518080602001828103825283818151815260200191508051906020019080838360005b8381101561051e578082015181840152602081019050610503565b50505050905090810190601f16801561054b5780820380516001836020036101000a031916815260200191505b509250505060405180910390f35b60048054600181600116156101000203166002900480601f0160208091040260200160405190810160405280929190818152602001828054600181600116156101000203166002900480156105ef5780601f106105c4576101008083540402835291602001916105ef565b820191906000526020600020905b8154815290600101906020018083116105d257829003601f168201915b505050505081565b60085481565b600c5481565b600b5481565b6000600c54905090565b60068054600181600116156101000203166002900480601f0160208091040260200160405190810160405280929190818152602001828054600181600116156101000203166002900480156106a95780601f1061067e576101008083540402835291602001916106a9565b820191906000526020600020905b81548152906001019060200180831161068c57829003601f168201915b505050505081565b60028054600181600116156101000203166002900480601f0160208091040260200160405190810160405280929190818152602001828054600181600116156101000203166002900480156107475780601f1061071c57610100808354040283529160200191610747565b820191906000526020600020905b81548152906001019060200180831161072a57829003601f168201915b505050505081565b600160009054906101000a900473ffffffffffffffffffffffffffffffffffffffff1673ffffffffffffffffffffffffffffffffffffffff163373ffffffffffffffffffffffffffffffffffffffff16141515610814576040517f08c379a00000000000000000000000000000000000000000000000000000000081526004018080602001828103825260168152602001807f53656e646572206e6f7420617574686f72697a65642e0000000000000000000081525060200191505060405180910390fd5b60b48110151561082b5760b4600a81905550610864565b607881101515610842576078600a81905550610863565b605a8110151561085957605a600a81905550610862565b6000600a819055505b5b5b60096000600a54815260200190815260200160002054600b819055506064600854600b540281151561089257fe5b04600c8190555050565b60038054600181600116156101000203166002900480601f0160208091040260200160405190810160405280929190818152602001828054600181600116156101000203166002900480156109325780601f1061090757610100808354040283529160200191610932565b820191906000526020600020905b81548152906001019060200180831161091557829003601f168201915b505050505081565b60078054600181600116156101000203166002900480601f0160208091040260200160405190810160405280929190818152602001828054600181600116156101000203166002900480156109d05780601f106109a5576101008083540402835291602001916109d0565b820191906000526020600020905b8154815290600101906020018083116109b357829003601f168201915b505050505081565b6000600b54905090565b600a5481565b60058054600181600116156101000203166002900480601f016020809104026020016040519081016040528092919081815260200182805460018160011615610100020316600290048015610a7e5780601f10610a5357610100808354040283529160200191610a7e565b820191906000526020600020905b815481529060010190602001808311610a6157829003601f168201915b5050505050815600a165627a7a72305820cc110bd820ee9b727e9266f32fb7c8e7970ee7f90c1d9bade8f80ba4082a335a0029",
  "source": "pragma solidity ^0.4.24;\r\n\r\ncontract FlightTicket {\r\n    \r\n    address owner;\r\n    address validator;\r\n    string public _flightNumber;\r\n    string public _departure;\r\n    string public _arrival;\r\n    string public _from;\r\n    string public _to;\r\n    string public _date;\r\n    uint public _price;\r\n    mapping (uint => uint) _refundPolicy;\r\n    //mapping (string => string) _airlineDetails;\r\n    //mapping (string => string) _userDetails;\r\n    \r\n    uint public _delay;\r\n    uint public _percentRefund;\r\n    uint public _totalRefund;\r\n\r\n    //event flightValidation(string indexed userAccount, string indexed airlineAccount, uint indexed userRefund);\r\n    \r\n    constructor(string  flightNumber, string  departure, string  arrival, string  from_, string  to, string  date, uint  price) public {\r\n        owner = msg.sender;\r\n        validator = msg.sender;\r\n        _flightNumber = flightNumber;\r\n        _departure = departure;\r\n        _arrival = arrival;\r\n        _from = from_;\r\n        _to = to;\r\n        _date = date;\r\n        _price = price;\r\n        _refundPolicy[0] = 0;\r\n        _refundPolicy[90] = 15; //100 minutes later = 10% refund\r\n        _refundPolicy[120] = 30;\r\n        _refundPolicy[180] = 100;\r\n    }\r\n    \r\n    function validateFlight(uint delay) public onlyValidator{\r\n        if (delay >= 180) {\r\n            _delay = 180;\r\n        }\r\n        else if (delay >= 120) {\r\n            _delay = 120;\r\n        }\r\n        else if (delay >= 90){\r\n            _delay = 90;\r\n        }\r\n        else {\r\n            _delay = 0;\r\n        }\r\n        _percentRefund = _refundPolicy[_delay];\r\n        _totalRefund = (_percentRefund*_price)/100;\r\n    }\r\n\r\n    function getPercentRefund() public returns (uint){\r\n        return _percentRefund;\r\n    }\r\n\r\n    function getTotalRefund() public returns (uint){\r\n        return _totalRefund;\r\n    }\r\n\r\n\r\n    modifier onlyOwner {\r\n        require(msg.sender == owner, \"Sender not authorized.\");\r\n        _;\r\n    }\r\n\r\n    modifier onlyValidator {\r\n        require(msg.sender == validator, \"Sender not authorized.\");\r\n        _;\r\n    }\r\n}\r\n",
  "sourcePath": "C:\\Users\\Sergi\\fairflight\\fairflight-blockchain\\truffle\\contracts\\FlightTicket.sol",
  "compiler": {
    "name": "solc",
    "version": "0.4.24+commit.e67f0147.Emscripten.clang"
  },
  "schemaVersion": "2.0.1",
  "updatedAt": "2018-11-25T10:30:56.332Z"
}